:020000021000EC
:108000000040002025D301006DD301006FD3010093
:108010000000000000000000000000000000000060
:1080200000000000000000000000000071D301000B
:10803000000000000000000073D3010075D30100B0
:1080400077D3010077D3010089A901002DAC01008D
:1080500077D301000000000077D3010039AD0100A3
:1080600077D30100C5A501000DA5010077D301005C
:1080700077D3010077D3010077D3010077D30100D4
:1080800077D301004DCA010077D3010077D30100F7
:108090002DCB0100CDAD0100F1D2010077D301005D
:1080A00077D3010077D3010000000000000000003A
:1080B00000000000000000000000000000000000C0
:1080C00010B5064C2378002B07D1054B002B02D0AE
:1080D000044800E000BF0123237010BDA820002049
:1080E000000000005C2E0200084B10B5002B03D0EE
:1080F0000749084800E000BF07480368002B00D18B
:1081000010BD064B002BFBD09847F9E7000000009C
:10811000AC2000205C2E0200A820002000000000FF
:10812000164B002B00D1144B9D46402292029A1A06
:10813000924600218B460F461348144A121A00F04B
:1081400067F80F4B002B00D098470E4B002B00D048
:1081500098470020002104000D000D48002802D09F
:108160000C4800E000BF00F02DF82000290001F0CD
:1081700067FF00F011F8C046000008000040002032
:108180000000000000000000A8200020402800207F
:108190000000000000000000084B10B50400002B98
:1081A00002D0002100E000BF054B1868836A002B55
:1081B00000D09847200000F033F8C04600000000CF
:1081C000CC1A02000E4B70B500251E000D4CE41AAF
:1081D000A410A54204D0AB00F35898470135F8E746
:1081E00009F066FC084B00251E00084CE41AA41098
:1081F000A54204D0AB00F35898470135F8E770BDAD
:10820000A0200020A0200020A0200020A4200020EA
:1082100003008218934202D019700133FAE77047C5
:10822000FEE7C0461D4B1B78012B00D070471C4B4E
:108230001B681B07FAD1F0221A4B1B68134018D198
:10824000194B1B6813421CD0154B1B681B07EDD143
:10825000F022144B1B681340402BE7D1124B1B68D4
:108260001342E3D1C12380220121DB00D205D1508A
:10827000DCE7102B01D0302BEAD10B4B1B681342EB
:10828000E6D10A4A0A4B1A6080220A4B12021A608F
:10829000024B1B78012BD7D0C8E7C046E00F00F097
:1082A000E40F00F0E80F00F0EC0F00F0DFFF07C074
:1082B00004050040186C004082B00190019B002B27
:1082C00014D0019B0A48013B01930138C046C046C7
:1082D000C046C046C046C046C046C046C046C0466E
:1082E000C046C046F1D1019B002BEAD102B07047D5
:1082F000E7030000A0228021F0B501262B4B2C4D76
:10830000D205C9032E70D15080212A4C4904D15086
:108310000022A35E85B00221625E0420215EAF2BA5
:1083200022DCAF2A20DCAF291EDC0627E05FAF2865
:108330001CDC0023204A1370204A1370204A13705B
:10834000204A1370204A1370204A1370204A137079
:10835000204A137002F08CF91F4B204A1860204B02
:108360001E70204B1A601FE00626A05F0A3A0A39E9
:108370000A3B0A386280A1802380E08002F064F822
:10838000C820FFF799FF18480222A35E0088002149
:10839000625E297802900625605F01900420205ECD
:1083A0000090124808F01CFC05B0F0BD0C05000060
:1083B0007A230020F8270020BB25002088240020F5
:1083C000B4250020D226002092240020BA250020C7
:1083D00000280020F3270020F4270020418B010013
:1083E00075230020E4260020C0250020D01A0200BA
:1083F000F0B544465F4656464D460223F0B4924CD3
:1084000080212370A122A023C903DB05D20099504B
:1084100080218E4A4904995082238D485B00C35ABB
:108420008DB0002B00D0F0E08A4F3D78EB0700D4F0
:10843000E9E0AB0700D4ACE0874E03239D433D70D9
:108440000523F356012B00D1BAE0022B00D0BAE08D
:108450000621824B71569946197007230822F3565C
:108460007F4F80483B70B2568046027009203056DC
:1084700000267D4D2870AA467C4DAE578E4200D115
:10848000B6E07B4E04967B4E05967B4E06967B4E61
:10849000490331607A4ED20232607A4EDB02336099
:1084A000794E00033060002900DCBEE0CE18361A99
:1084B000B3460896CB1A8E1A8A1836181B1A10184B
:1084C000724A09960A930B90934501DC0132089297
:1084D0006E4A964201DC013209926C4A934202DCF8
:1084E000B4239B020A93694B984201DC01330B933E
:1084F000E122089BD202934201DD13000892E1229F
:108500000999D2020791914200DD0992E1220A996C
:10851000D2020791914200DD0A92E1220B99D20228
:108520000791914200DD0B92594E9B123380099BBB
:108530009B1273800A9B07939B12B3800B9B9B1229
:10854000F38001F081FF4B461B78059A2B70434660
:108550001B78504813703B78049A00881370534678
:10856000069A1B7813700222B35E0021725E217896
:1085700002900624305F01900424305F009046484A
:1085800008F02EFB0DB03CBC90469946A246AB4687
:10859000F0BD4248304EC3780A2B00D04DE7037936
:1085A00033718178002900D147E70531431D721DE1
:1085B000401819780133117001328342F9D13CE738
:1085C000374A384B1A600021244B002699465956E9
:1085D0000023244A2448254D214F90468246127894
:1085E0000078AE57FB5652B240B28E4200D048E7F8
:1085F0001F4E0496367876B29E420DD01D4E0596DB
:108600001D4E069643E7144E1AE702F067FA010082
:10861000224801F05BFE07E7164E0596367876B2E3
:10862000964209D0144E069631E70023184E338047
:108630007380B380F38084E70F4E0696367876B267
:10864000864200D023E79DE77A2300200C05000036
:1086500080230020F227002008280020BB250020CE
:1086600088240020B4250020D22600209224002057
:10867000BA25002000280020F327002094240020A1
:10868000A4240020A824002004280020FFCF0200FA
:10869000F8270020C0250020D01A0200C4200020A6
:1086A000F5820100E4260020F0B503225F4656461D
:1086B0004D464446574BF0B41A70574B80219946AB
:1086C00000234A461380554AC90313809246544AF0
:1086D000002713809346534A83B01380524A138075
:1086E0009046A023A122DB05D200995080214904A5
:1086F000995080214D4A4905995004F0B5F8002859
:10870000FBD003F0A5FF4B461888494B01371B8867
:10871000C0184B4600B2188053461A88454B1B8838
:10872000D31852461BB213805A461688424A128802
:10873000B6185A4636B216803A4A15883F4A128809
:10874000AD18384A2DB21580424614883C4A12882A
:10875000A418424624B21480962FCED196211F0031
:1087600005F03CFC4A4696211080380005F036FCA6
:10877000534696211880300005F030FC5B46962168
:108780001880280005F02AFC264B9621188020002E
:1087900005F024FC4346188001F06AFF294B18605D
:1087A0005B4600229B5E52460021525E49460020F5
:1087B000095E40460024005F01901A480024005FD3
:1087C0000090214808F00CFA204808F009FA8223AA
:1087D0001F485B00C35A002B00D093E11D4C237847
:1087E000DA0700D481E19A073CD51B490322934361
:1087F00023700523CB56002B00D17CE1012B02D145
:10880000164A174B1A6003B03CBC90469946A246E4
:10881000AB46F0BD7A230020B6250020702300204F
:108820007C230020D0260020902400200C0500008E
:10883000D4260020B825002002280020862400200D
:1088400098240020F42700201C1B0200601B02005B
:1088500080230020F227002008280020F582010054
:10886000E4260020B04DB149EA780A2ABED12A791F
:108870000A71AE78002EB9D06A1D91464A1D904605
:108880004A4640460243520700D042E1092E00D832
:108890003FE1484640786F79000238434F46BF7841
:1088A00032003F0438434F46083AD2080132FF787D
:1088B0009446D20093463F064A46074348465279BB
:1088C0000079120210434A4692794F711204104304
:1088D0004A46D279120610433A0A914682464246E7
:1088E000484650703A0C9146424648469070504671
:1088F0003F0ED77010715246170A424657715246C2
:10890000170C424697715246100E4246D07162468D
:10891000012A00D1B0E00D229046A844424650788A
:108920006F7B0002384397783F043843D7783F067F
:108930000743107952794F731202104342469279DD
:10894000120410434246D279120610430D2290467B
:108950003A0A9146884482464246484650703A0C4C
:10896000914642464846907050463F0ED77010716F
:108970005246170A424657715246170C42469771A3
:108980005246100E4246D0716246022A74D0152219
:108990009046A844424650786F7D0002384397784D
:1089A0003F043843D7783F060743107952794F7513
:1089B0001202104342469279120410434246D27981
:1089C00012061043152290463A0A91468844824680
:1089D0004246484650703A0C91464246484690708E
:1089E00050463F0ED77010715246170A42465771D3
:1089F0005246170C424697715246100E4246D071AD
:108A00006246032A38D01D229446AC446246507810
:108A10006F7F0002384397783F043843D7783F068A
:108A20000743107952794F771202104362469279C8
:108A3000120410436246D279120610431D22944656
:108A40003A0A90468C4481466246404650703A0C41
:108A5000904662464046907048463F0ED77010716F
:108A60004A46170A624657714A46170C6246977182
:108A70004A46100E6246D0715E4500D1B6E65A46AF
:108A8000AF187F7988184771501CB04200DBADE603
:108A90000F18281840797871901C864200DCA5E6F2
:108AA0000F18281840797871D01C864200DC9DE6AA
:108AB0000F18281840797871101D864200DC95E661
:108AC0000F18281840797871501D864200DC8DE619
:108AD0000F182818407906327871964200DC85E636
:108AE0008818AA185279427180E605230F49CB569F
:108AF000002B00D082E601220D4B1A700D4A0E4B5E
:108B00001A6080E601F0EAFF0100074801F0DEFB91
:108B100064E6053609486A1DAD19167801320670FB
:108B20000130AA42F9D161E6C420002008280020C3
:108B300075230020418B0100E42600200D28002031
:108B4000F0B556465F464D4644460023F0B41B4AF6
:108B50001B4E1370337889B0002B26D1A0228021C0
:108B6000184BD205C903D150802149049950802166
:108B7000490599500023144C23806380A380E3802F
:108B800001F062FC114F3B78002B00D0BDE1104B8F
:108B90001B78002B02D03378002B1BD109B03CBCD2
:108BA00090469946A246AB46F0BDA0238021054AD7
:108BB000DB05C9039950043AD6E7C0467A23002062
:108BC000012800200C050000F82700207523002054
:108BD000E82600208223D7485B00C35A002B00D030
:108BE000F5E1D5490A78D30700D4B1E1930700D560
:108BF000F4E1D248C3780A2B00D0EFE10679D04BDC
:108C00001E718678002E00D1E9E1451DA9464F4628
:108C10005D1D2F43A8467D0700D03DE2092E00D8F8
:108C20003AE23700083FFF087D1CAA46ED00AC463B
:108C30004579AB464D466F785D463F022F434D4622
:108C4000AD782D042F434D46ED782D062F43079721
:108C50004F464D467F792D793F023D434F46BF79C0
:108C60003F043D43AB464D46ED792D06A9465D4692
:108C70004F463D43AB46079D5D712D0AA9464546CB
:108C80004F466F70079D2D0CA94645464F46AF7065
:108C9000079D2F0E4546EF705F462F715D462F0AE8
:108CA00045466F715D462F0C4546AF715D462F0EF0
:108CB0004546EF715546012D00D1E6E00D25A94648
:108CC00081444D466D78477B2D022F434D46AD784C
:108CD0002D042F434D46ED782D063D43A8464D46C5
:108CE0002D79AB464D466F795D463F022F434D4689
:108CF000AD792D043D43AB464D46EF795D463F06C9
:108D00002F430D25A94645465D7345462D0AAB46C2
:108D1000994407974D465F466F7045462D0CAB460C
:108D20004D465F46AF7045462D0EA8464D46474618
:108D3000EF70079F2F713D0AA8464D4647466F7159
:108D4000079D2D0CA8464D464746AF71079D2F0E37
:108D50004D46EF715546022D00D196E01525A946E6
:108D600081444D466D78477D2D022F434D46AD78A9
:108D70002D042F434D46ED782D063D43A8464D4624
:108D80002D79AB464D466F795D463F022F434D46E8
:108D9000AD792D043D43AB464D46EF795D463F0628
:108DA0002F431525A94645465D7545462D0AAB4618
:108DB000994407974D465F466F7045462D0CAB466C
:108DC0004D465F46AF7045462D0EA8464D46474678
:108DD000EF70079F2F713D0AA8464D4647466F71B9
:108DE000079D2D0CA8464D464746AF71079D2F0E97
:108DF0004D46EF715546032D47D01D25A9468144A8
:108E00004D466D78477F2D022F434D46AD782D049A
:108E10002F434D46ED782D063D43A8464D462F790C
:108E20006D792D022F434D46AD792D042F434D46CC
:108E3000ED792D062F431D25A94645465D7745460C
:108E40002D0AAA469944BB464D4657466F70454683
:108E50002D0CAA464D465746AF7045462D0EA846E6
:108E60004D464746EF705F462F715D462D0AA84676
:108E70004D4647466F715D462D0CA8464D46474608
:108E8000AF715D462F0E4D46EF71B44500D1A6E09F
:108E900080466546E0445F1945466D797D716546BB
:108EA0006F1CB74200DB9AE0DD19C7197F796F713B
:108EB0006546AF1CBE4200DC91E0DD19C7197F7921
:108EC0006F716546EF1CBE4200DC88E0DD19C719F2
:108ED0007F796F7165462F1DBE4200DC7FE0DD1992
:108EE000C7197F796F7165466F1DBE4200DC76E061
:108EF000DD19C7197F796F7167460637BE426EDD8F
:108F0000C0194079DE19707169E00E480222A35E33
:108F100000880021625E0C49097802900625605F96
:108F200001900425605F0090084807F059FE002377
:108F30003B702CE680230020F2270020C420002074
:108F400008280020C02500207A230020D01A020023
:108F5000594B05229A56032A00D199E043DD042A91
:108F60006DD0052A00D019E606229A56002A00D0B4
:108F700014E607229A56002A00D00FE608229A56D5
:108F8000002A00D00AE65B7A5BB2002B00D005E62F
:108F90004A480222A35E00880021625E484909789F
:108FA0000590484800780490474800780390474867
:108FB000007802900625605F01900420205E0090FA
:108FC000434807F00DFE434A434B1A60E6E501F0C3
:108FD00085FD0100414801F079F902E6364B032096
:108FE00082430A70B5E7022A00D0D7E506229A56D6
:108FF000002A00D0D2E507229A56002A00D0CDE5FB
:1090000008229A56002A00D0C8E55B7A5BB2002B92
:1090100000D0C3E50222A35E0021625E27490988D1
:1090200002910620215E01910420215E2C480091CE
:10903000022107F0D5FD2B4A274B1A60AEE5062228
:109040009A56002A00D0A9E507229A56002A00D095
:10905000A4E508229A56002A00D09FE55B7A5BB20D
:10906000002B00D09AE50222A35E0021625E134924
:10907000098802910620215E01910420215E184892
:109080000091042107F0ACFD174A134B1A6085E5E7
:10909000164A114B1A6081E50536154D471D80199A
:1090A0009C462E00030038780137307001369F420D
:1090B000F9D1634693E7C04608280020C025002068
:1090C0007A23002076230020A02400206E23002095
:1090D000801B0200D5970100E4260020C420002058
:1090E000D01A0200F1830100B1910100A9860100AC
:1090F0000D28002030B587B000284EDD8518441AB1
:10910000821A40182849ED1AE418D21AC318029599
:109110000394049205938D4201DC013102912249AE
:109120008C4201DC013103911F498A4202DCB422E6
:10913000920204921C4A934202DCB4239B020593E0
:10914000E122029BD202934200DD1300E122039947
:10915000D2020191914200DD0392E1220499D202F0
:109160000191914200DD0492E1220599D202019120
:10917000914210DC0D4A9B121380039B9B1253807B
:10918000049B01939B129380059B9B12D38001F05B
:109190005BF907B030BD0592ECE70022034B1A8063
:1091A0005A809A80DA80F2E7FFCF0200F827002089
:1091B000F0B504235F4656464D464446654AF0B432
:1091C00080211370A023644ADB05C90399508020D5
:1091D000A1214004C90058508021490589B0995007
:1091E00003F042FB002800D091E201F051FA002880
:1091F00066D1822359485B00C35A594C002B00D0DA
:1092000072E058480378DA0705D59A0700D4CFE012
:109210000322934303700523E356012B00D166E23A
:10922000042B68D0504B514A514952481B78127850
:10923000097800785BB252B249B240B200264E4C77
:10924000A657A2469E4200D179E04C4C4C4EA44613
:109250004C4F5D03A9464C464B4D39702C60CC02F7
:10926000A1464D46494C32702560D402A1464D4678
:10927000474C25600403A1464D46464C25605446A4
:1092800023706346444C1870444824880222835E4D
:109290000021425E2F4909780394414C24780294BE
:1092A0000625445F01940424005F00903D4807F0C8
:1092B00097FC09B03CBC90469946A246AB46F0BD2F
:1092C000394B0F211868421C1A6004F083FE0029F4
:1092D00000D1E8E1224C01F0E1F982231F485B0054
:1092E000C35A002B00D18CE701F0F8FB01002F4896
:1092F00000F0ECFF85E706231B4AE3561B49137079
:109300000722A2561A480A7008216156194E0170A8
:109310000920205630702679012E00D118E2022E45
:1093200000D08BE71E4F3E78013E3E70002626712E
:109330000026114CA657A2469E4200D085E7002782
:109340000F4EF757974200D1F9E10C4C0D4FA44650
:109350007FE7C0467A2300200C0500008023002010
:1093600008280020F2270020BB25002088240020A8
:10937000B4250020D226002092240020F3270020CC
:10938000BA2500200028002094240020A4240020D6
:10939000A824002004280020C0250020F827002051
:1093A0006E230020401C0200BC250020C4200020A9
:1093B000EC4EF2780A2A00D02AE732792271B77887
:1093C000002F00D124E7721D9246621D914652463D
:1093D00049460A43520700D0EFE1092F00D8ECE1DB
:1093E0003A005546083AD20801326D789046D100CD
:1093F00072792D022A435546AD782D042A435546ED
:10940000ED782D062A4355462D790792AC465546F0
:109410006D792D02AB4665465A4615435246927900
:10942000120415435246D27912061543079AAC46E8
:109430006271120A92464A4655465570079A120CB6
:1094400092464A46554695704D46079A120EEA7066
:109450004A466546157162464D46120A6A71624671
:10946000120CAA716246120EEA714246012A00D11C
:10947000E1E00D229146B1444D466D78727B2D029C
:109480002A434D46AD782D042A434D46ED782D06EE
:109490001543AC464D464A466D7912792D022A4352
:1094A0004D46AD792D042A434D46ED792D062A43CC
:1094B0000D25A9466546657365462D0AAA46A14451
:1094C00093464D4652466A706246120C92464A4690
:1094D000554695706246120E94464A466546D570CA
:1094E0005D4615715A46120A94464A4665465571BC
:1094F0005A46120C94464A46654695715A464D4660
:10950000120EEA714246022A00D194E015229146D9
:10951000B1444D466D78727D2D022A434D46AD789B
:109520002D042A434D46ED782D061543AC464D4695
:109530004A466D7912792D022A434D46AD792D04A4
:109540002A434D46ED792D062A431525A946654641
:10955000657565462D0AAA46A14493464D46524676
:109560006A706246120C92464A46554695706246AB
:10957000120E94464A466546D5705D4615715A46A8
:10958000120A94464A46654655715A46120C94464C
:109590004A46654695715A464D46120EEA71424654
:1095A000032A48D01D229046B04445466D78727F0C
:1095B0002D022A434546AD782D042A434546ED78D1
:1095C0002D061543AC46454642466D7912792D026B
:1095D0002A434546AD792D042A434546ED792D06AB
:1095E0002A431D25A8466546657765462D0AA94686
:1095F000A044924645464A466A706246120C91461D
:1096000042464D4695706246120E94464246654665
:10961000D570554615715246120A94464246654623
:1096200055715246120C9446424665469571524613
:109630004546120EEA71B94200D1E9E575186D7917
:10964000621855714A1CBA4200DBE1E5A518B21850
:1096500052796A718A1CBA4200DBD9E5A518B218A2
:1096600052796A71CA1C974200DCD1E5A518B2187C
:1096700052796A710A1D974200DCC9E5A518B21833
:1096800052796A714A1D974200DCC1E5A518B218EB
:10969000527906316A718F4200DCB9E5621871189F
:1096A00049795171B4E5A02380212F4ADB059A58EE
:1096B000C90552003FD52D4A99502D482D4C022204
:1096C000835E26790021425E2B49097804962B4E51
:1096D000368803962A4E367802960625465F01960E
:1096E0000425405F0090274807F07AFAF3E500234D
:1096F000254A1360254A1360254A1360254A1360E2
:1097000028221F4B1A70244A244B1A608AE502F063
:109710009FFF234B1D4900229A5E1E4B1A481B686F
:1097200009689A1A164B00681B785343184A126846
:10973000FFF7E0FC59E5A122D2009950BDE70024D3
:10974000184F3C57A446184C8C452FD0A44680E5B2
:109750000B4F3E780136F6B27E2E00D8E5E57F2627
:10976000E3E5C046C4200020040500000C0500000D
:10977000F8270020082800207A230020C025002098
:109780006E230020E01B020094240020A42400206B
:10979000A824002004280020F5820100E4260020EF
:1097A0000228002000280020F3270020A446247867
:1097B00064B2844200D04CE57BE505370449721D54
:1097C000F619177801320F700131B242F9D11FE555
:1097D0000D280020F0B505235F4656464D46444609
:1097E000334AF0B480211370A023A122DB05C90302
:1097F000D200995080212F4A49049950802149056F
:1098000089B0995003F030F8002800D0A5E200F0AC
:109810003FFF00280BD0284B0F211868421C1A600C
:1098200004F0D8FB002900D1D2E100F037FF8223F9
:1098300022485B00C35A002B00D0CFE2204D2A788B
:10984000D30700D4ECE1930748D51E4B03218A438C
:109850002A7005229A56012A00D1E7E1052A00D094
:109860001CE2062218499A5689460A7007211748B1
:10987000595680460170082009251856144C154F7A
:1098800020705D57A4463D701E79012E00D1C0E2C4
:10989000022E00D1ADE2042E00D0C2E20E4F3E787F
:1098A0000136F6B27E2E00D8A6E27F26A4E2C0469C
:1098B0007A2300200C050000BC2500208023002016
:1098C000F227002008280020BB2500208824002043
:1098D000B4250020D2260020A0240020DE4EF378FC
:1098E0000A2BB2D1DD4B31791971B778002FADD089
:1098F000711D8A46591D894651464846014349070C
:1099000000D0B8E2092F00D8B5E239005446083932
:10991000C908013164788846C8007179240221435E
:109920005446A478240421435446E4782406214371
:10993000544624790791A446544664792402A346E8
:10994000644659460C435146897909040C435146F3
:10995000C97909060C430799A4465971090A8A4630
:10996000494654464C700799090C8A464946544664
:109970008C704C460799090EE170494664460C719B
:1099800061464C46090A61716146090CA171614644
:10999000090EE1714146012900D1E1E00D2189461E
:1099A000B1444C466478717B240221434C46A47830
:1099B000240421434C46E47824060C43A4464C4638
:1099C000494664790979240221434C46A479240448
:1099D00021434C46E479240621430D24A1466446E4
:1099E0005C736446240AA24699448B464C46514611
:1099F00061706146090C8A46494654468C7061463E
:109A0000090E8C4649466446CC705C460C7159463A
:109A1000090A8C46494664464C715946090C8C46E5
:109A2000494664468C7159464C46090EE1714146DF
:109A3000022900D194E015218946B1444C4664784E
:109A4000717D240221434C46A478240421434C46D2
:109A5000E47824060C43A4464C46494664790979C7
:109A6000240221434C46A479240421434C46E47942
:109A7000240621431524A14664465C756446240AE5
:109A8000A24699448B464C46514661706146090C8A
:109A90008A46494654468C706146090E8C464946B2
:109AA0006446CC705C460C715946090A8C4649469E
:109AB00064464C715946090C8C46494664468C7183
:109AC00059464C46090EE1714146032948D01D21F3
:109AD0008846B04444466478717F2402214344465A
:109AE000A478240421434446E47824060C43A44685
:109AF0004446414664790979240221434446A479C5
:109B0000240421434446E479240621431D24A0462D
:109B100064465C776446240AA14698448A464446D3
:109B2000494661706146090C894641464C468C7035
:109B30006146090E8C4641466446CC7054460C7111
:109B40005146090A8C46414664464C715146090CFF
:109B50008C46414664468C7151464446090EE1717B
:109B6000B84200D172E63418647919184C71411C5E
:109B7000B94200DB6AE65C18711849796171811C91
:109B80008F4200DC62E65C18711849796171C11C72
:109B90008F4200DC5AE65C18711849796171011D29
:109BA0008F4200DC52E65C18711849796171411DE1
:109BB0008F4200DC4AE65C18711849790630617101
:109BC000874200DC42E619183018407948713DE6BA
:109BD000A0238021224ADB059A58C905520000D4EF
:109BE00003E1204A99502048204D0222835E2D88AF
:109BF0000021425E1E49097805951E4D2D78049579
:109C00001D4D2D7803951D4D2D7802950624055F79
:109C100001950424005F0090194806F0E1FF04E676
:109C200005220E4B9A56012A00D017E60023154A4A
:109C30001360154A1360154A1360154A13602822F1
:109C40000E4B1A700A230C4A13700A4A1370114AF9
:109C5000114B1A6025E0C046C420002008280020CF
:109C6000040500000C050000F8270020C025002096
:109C70007A23002076230020A02400206E230020D9
:109C8000801B020094240020A4240020A82400208B
:109C900004280020F5820100E42600207B4806F01D
:109CA0009FFF0022002100200025794B9A56794B16
:109CB0005956794B1856794B5D570026784B9E576D
:109CC0009A46964240D0774B774E9C46774F540346
:109CD000A1464B46764C38702360C30299464C46E9
:109CE000744B75481C60CB0299464C46734B3170DF
:109CF0001C602B0399464C46714B1C6053461A70EE
:109D00006346704C1D700222835E24880021425EEF
:109D10006D49097805946D4C247804946C4C247832
:109D200003946C4C247802940625445F0194042427
:109D3000005F0090684806F053FF09B03CBC9046B5
:109D40009946A246AB46F0BD0027574EF7578F42C3
:109D500056D0544B554F9C46B9E702F079FC5C4B0A
:109D60001F785A4B19785D4B00229B5E5C4A00209D
:109D7000125E9A1A524B1B689B1A564A127853432A
:109D8000584A0020125E58480026865F961B4B4AB0
:109D90001268921B7A431600544A0025555F544AB4
:109DA0000020125E5348AA1A534D0024005F00247D
:109DB0002D5F4A43451B3F48B21A00684F4E401B77
:109DC0004F4D0024365F00242D5F7843AD1B69435F
:109DD000411A37480068FFF78DF918E500F07EFE5C
:109DE0000100484800F072FA28E5A122D2009950FB
:109DF000F9E6384F3E78013E3E7000261E715CE762
:109E000000232A4FFB569C46264B84452CD09C466B
:109E10005DE7304F3E780136F6B27E2EECD97F26D4
:109E2000EAE7082E11D12A490A78013A0A7000227D
:109E30001A714B46002200219A564346002059567B
:109E4000002563467D57185637E7102E07D11F4966
:109E50000A780132D2B27E2AE8D97F22E6E7202EA4
:109E600000D02AE7194FC5E79C461B785BB2AB428E
:109E700000D02CE761E705372348711DF6190F78EC
:109E80000131077001308E42F9D1DFE4941C0200E9
:109E9000BB25002088240020B4250020D2260020E5
:109EA00092240020F3270020BA250020002800205B
:109EB00094240020A4240020F8270020A8240020B7
:109EC00004280020C02500207A23002076230020CB
:109ED000A02400206E230020801B02000228002006
:109EE0007C2300209824002090240020B825002006
:109EF0007023002086240020D0260020B6250020D4
:109F0000D4260020C42000200D28002030B5094BA5
:109F100089B002001979172001AB00F02DF901ACCE
:109F200008AD2078013400F0CBFCAC42F9D109B087
:109F300030BDC0460828002010B500F067FD00F0D5
:109F400093FA00F0BDFB00F009FF00F0A7FE6421CA
:109F5000012002F099FC00F01FFF00F03FFF00F02D
:109F6000DFFE00231D4A13701D4A53719371D37194
:109F7000137253721B4A13701B4A13701B4A1370DF
:109F80001B4A13701B4A13701B4A13701B4A137031
:109F90001B4A13701B4A13701B4A13601B4A136041
:109FA0001B4A13601B4A1C4913601C4A13805380D0
:109FB0009380D38001220A7019490A7019490A70E6
:109FC0002821194A11700A2218490A7018490A7082
:109FD000184A19491160194A136010BD2E28002033
:109FE000082800207A230020BB2500208824002098
:109FF000B4250020D226002092240020BA2500207B
:10A0000000280020F327002094240020A42400200E
:10A01000A824002004280020E8260020F82700209B
:10A0200001280020752300206E230020A02400209A
:10A0300076230020E4260020418B0100BC2500206F
:10A04000F0B55F46564644464D46F0B487B0FFF73C
:10A0500073FF394B394C9B46394B3A4E9A463A4B33
:10A060003A4F99463A4B984605E03368984700F0D6
:10A070001BFB00281CD13D78002D39D100F008FBD6
:10A080000028F2D000F04CFE5B461988F423FF3321
:10A0900099423BD82378002B45D1404606F0A0FDDD
:10A0A00000F0FCFA3368984700F0FEFA0028E2D08E
:10A0B0006A46284B68461B7813700023019302936D
:10A0C00003930493137553759375234B1B78537047
:10A0D000224B1B789370224B1B78D370214B1B783B
:10A0E0001371FFF713FF00F0E5FA3D78002DC5D09E
:10A0F0001D4806F075FD6420FEF7DEF8BFF34F8FB4
:10A100001A4A1B4BDA60BFF34F8FFEE7FA235B005E
:10A110009942C2D02378002BC2D101331548237055
:10A1200006F05EFDBCE7FA225046520006F058FDEC
:10A130004B4625703360B3E7C0250020E826002099
:10A14000A81C0200E4260020F58201002E28002031
:10A15000CC1C02007A230020BB250020882400208C
:10A16000B4250020D2260020001D02000400FA05BC
:10A1700000ED00E0EC1C0200F0B580241C70743C83
:10A1800058709C70D970002800D19CE000211C0000
:10A190000E000834A2424E410924934249418442B0
:10A1A000A441314364421D1D0C4200D183E02900CB
:10A1B0001143890700D07EE00026041FA408013463
:10A1C000A100B700D759013680C5B442F9D8814201
:10A1D0000ED055565C1825714C1C844208DA155770
:10A1E00002311C192571884202DD545659180C7130
:10A1F000011D5B183125002124E0C9B24CB2490091
:10A20000002C30DBC9B24CB24900002C31DBC9B2A2
:10A210004CB24900002C32DBC9B24CB24900002CD0
:10A2200033DBC9B24CB24900002C34DBC9B24CB2AA
:10A230004900002C35DBC9B24CB24900002C36DB9A
:10A24000C9B201320138C0B2FF2832D0147861405F
:10A250004CB2E1B24900002CCFDA6940C9B24CB22D
:10A260004900002CCEDA6940C9B24CB24900002C3A
:10A27000CDDA6940C9B24CB24900002CCCDA694051
:10A28000C9B24CB24900002CCBDA6940C9B24CB219
:10A290004900002CCADA6940C9B24CB24900002C0E
:10A2A000C9DA6940C9B24CB24900002CC8DA694029
:10A2B000C6E71970F0BD002155565C1801312571B3
:10A2C0008842F9DC94E7042193E7C04670B503782F
:10A2D0000400062B00D9A3E0584A9B00D3589F46A0
:10A2E0002323C1541D3B0370A078651D0023312634
:10A2F00024E0DBB25AB25B00002A30DBDBB25AB298
:10A300005B00002A31DBDBB25AB25B00002A32DB91
:10A31000DBB25AB25B00002A33DBDBB25AB25B001D
:10A32000002A34DBDBB25AB25B00002A35DBDBB239
:10A330005AB25B00002A36DBDBB201350138C0B20D
:10A34000FF2857D02A7853405AB2D3B25B00002A74
:10A35000CFDA7340DBB25AB25B00002ACEDA734028
:10A36000DBB25AB25B00002ACDDA7340DBB25AB2DC
:10A370005B00002ACCDA7340DBB25AB25B00002AE1
:10A38000CBDA7340DBB25AB25B00002ACADA734000
:10A39000DBB25AB25B00002AC9DA7340DBB25AB2B0
:10A3A0005B00002AC8DA7340C6E72323C15C9BE741
:10A3B000012080293BD070BD0223817003700120F1
:10A3C000F9E70323C17003700120F4E7042301714E
:10A3D00003700120EFE72423C35CC2185171827817
:10A3E000013A934201DB0522027024220133A35477
:10A3F0000120E0E7994217D02522A35C104D0133DC
:10A40000A35402232A780F4813432B7006F0E8FB6D
:10A41000002001232A7813432B7000232370CAE7FE
:10A42000002303700120C6E70120054DF1E700225B
:10A430002423E25461702070BDE7C046101D020065
:10A44000F22700202C1D0200054A064B11881980B6
:10A450005188598091889980D288DA807047C046A7
:10A46000F8270020D8260020A222194B1949D20033
:10A4700099501949194A8020995019490432995024
:10A480001849194AC0039950A023EB210322DB0588
:10A49000C9005A5008315A5010315A5008315A5098
:10A4A000A121C90058508020400458508020400508
:10A4B00058508020C00558500C495A5004315A5009
:10A4C00028395A5008395A500021094A9950704782
:10A4D000006000400315130003171300140500006B
:10A4E00003191300031D13001C0500004C07000096
:10A4F000140700000122014B1A7070473828002011
:10A500000122014B1A70704730280020A622274BE9
:10A5100052009958002931D00021995024490A68E5
:10A520003932FF320A6001229A64224A1278002AE4
:10A5300024D1A922D2009A58F423FF339A421DD87D
:10A540001D4B0422995E1D4A914218DDFA22FA2021
:10A5500092009A800622995E184AC00091421BDC44
:10A560000A1C00291DDBFA2112B289005118DA8079
:10A57000A8220E4BD2009850114A995070470A1CDD
:10A58000002910DBFA2112B2890050189A800622A5
:10A59000995E0A4A9142E3DDFA21FA22C90092004B
:10A5A000E5E70022DFE70022ECE7C04600A000401C
:10A5B00034280020D6260020D8260020E7030000FB
:10A5C00044050000A622254B5200995800292DD0A1
:10A5D000002199504C3AFF3A9A64214A1278002A95
:10A5E00024D1A922D2009A58F423FF339A421DD8CD
:10A5F0001C4B0022995E1C4A914218DDFA22FA2077
:10A6000092001A800222995E174AC00091421BDC18
:10A610000A1C00291DDBFA2112B2890051185A8048
:10A62000A8220E4BD2009850104A995070470A1C2D
:10A63000002910DBFA2112B2890050181A80022278
:10A64000995E094A9142E3DDFA21FA22C90092009B
:10A65000E5E70022DFE70022ECE7C046009000407B
:10A66000D6260020D8260020E7030000440500007D
:10A670000122054B9A64A922D2009858034BC008C6
:10A680001B68C0187047C04600A000403428002056
:10A69000014B18787047C046382800200022014B33
:10A6A0001A70704738280020014B18787047C04650
:10A6B000302800200022014B1A70704730280020FB
:10A6C000F8B500235F4656464D464446564AF0B418
:10A6D0001360564AA2261370554A01211370C123F4
:10A6E0009B009A4680231B039B4653465846A82549
:10A6F000504AF6009151D0504F48E433ED00535189
:10A700009C4613504D4B4E488027135099460823C2
:10A7100050465C46BF00D35198464A4BD160995190
:10A720001C506046444C585118514846444C1851EE
:10A730004046D851D9601160C02252009446802210
:10A74000D20090461960624641463F4B043C995006
:10A75000F8395A58914648463C4A0240C020000405
:10A7600002435A5042461A6062469F505A589446D5
:10A770006046374A0240C020000202435A501F6020
:10A78000344A354B35499A51354A08365A5035497D
:10A7900029489951344E9A51A422344ED2009E50E9
:10A7A000334A344E9A5104369951334910365A502F
:10A7B000A6223249D2009950314A32495A50324980
:10A7C0009951324E9A51324A5A51324A1A501951BD
:10A7D0001B4900205A50FF212F4A995000232F4A2D
:10A7E000FA3902F009FC002803D00022002102F00F
:10A7F000D1F82B4A01212B4802F070FC00222A4993
:10A800002A4802F085FC2A4A01212A4802F066FC07
:10A8100000222949294802F07BFC3CBC904699461D
:10A82000A246AB46F8BDC046342800203828002098
:10A830003028002000A0004044050000C4090000AA
:10A840004C0500000090004000E100E0FFFF00FF29
:10A85000FF00FFFF4091004000F0014014050000A0
:10A86000006000404C9100401C05000044910040F5
:10A8700004600040240500002C05000040A10040B9
:10A8800008600040340500004CA100403C05000079
:10A8900044A100400C60004004050000EC200020B2
:10A8A000F5A40100381D020066060000B422002055
:10A8B00001A501003C1D020066660000D4220020B4
:10A8C00010B5802304240A4AD4500A4B1A78002A6F
:10A8D00008D000221A70084B084AD0500422044BBA
:10A8E0001A6010BD0100064800F0EAF8F6E7C0461D
:10A8F00000E100E0642000201C0500000020004072
:10A90000AC240020F0B55F4656464D464446F0B4B0
:10A9100083B00192002A24DD802399467C3B924635
:10A92000984600230C008A44124E134D04279B4680
:10A9300009E05B46114A3370114B0134D150434654
:10A940002B6054450DD04B462178EF503378002BC7
:10A95000EFD10C4800F0B4F8434601342B60544565
:10A96000F1D1019803B03CBC90469946A246AB4653
:10A97000F0BDC0466420002000E100E0002000405F
:10A980001C050000AC240020842210B5194B520095
:10A99000995800291ED18E23164C5B00E258002ADC
:10A9A00009D000221448E250183BC35A002B1BD197
:10A9B0000122124B1A7092220E4B52009958002914
:10A9C00007D0002199509022D20099580C4806F0E7
:10A9D00007F910BD00219950A322D20099580948C7
:10A9E000C9B200F06DF8D6E700F078F8064BE050F9
:10A9F000E1E7C04600200040AC2400206420002095
:10AA0000401D0200802300201C05000010B51E48D8
:10AA100000F04CF81D4800F049F8A023E72203217C
:10AA2000DB05D2009950E82100220E20C9005A50BF
:10AA3000174B1849585018490230585017481849B0
:10AA40005850A0200421C0001950842040001A5002
:10AA500014301A5001329A601A60C2221E38FF3830
:10AA600092009850A120043A80009850C0230D4ACB
:10AA70005B00D1507C3014580B4B2340C02424047D
:10AA800023431350116010BD80230020AC2400200C
:10AA9000002000400C0500001405000000E0D70174
:10AAA0002405000000E100E0FFFF00FF80220023FA
:10AAB000FF21520083520232815202328352704788
:10AAC000812210B5FF245200835A01332340835260
:10AAD000C1540232835A0133835210BD802110B514
:10AAE000FF2402004900435AC05C01332340535203
:10AAF0000431535A013B535210BDC046F0B557467E
:10AB00004E4645468446E0B489469A460120002ACE
:10AB10003BD0B12300276146244E254D254CDB0058
:10AB20002F702770F1504946234BF1508021890046
:10AB30007750B06029780029FCD000212970012AC3
:10AB40002ED0802101251948890045500121174840
:10AB500089460160802189008846FF39A325FF3995
:10AB6000534600268C46ED0021780029FCD0267043
:10AB70004159013AD2B21970012A0BD049460162FB
:10AB8000002A01D00133EFE700201CBC9046994613
:10AB9000A246F0BD41466746013347500262E3E7F3
:10ABA00080210225014889004550CFE70030004050
:10ABB000F4220020F52200201C050000F0B54746D5
:10ABC00080B407000120002A27D00025B126A8461E
:10ABD000134CF6002570134DAF5180274646BF0039
:10ABE000EE51114EA951A86021780029FCD0002116
:10ABF0000020013A2170D1B201310A4E0A4D591894
:10AC00001A7872512278002AFCD0013320708B42CE
:10AC1000F6D101220020034B5A6104BC9046F0BDDE
:10AC2000F4220020003000401C050000F8B5842309
:10AC3000154A5B00D158002904D00021D1500122CF
:10AC4000124B1A708E23104A5B00D158002904D091
:10AC50000021D15001220E4B1A7092250A4C6D0032
:10AC60006359002B0FD00B4EA759FFF701FDB123FD
:10AC7000DB000200E3583900074805F0B1FF032369
:10AC8000A35100236351F8BD00300040F52200209D
:10AC9000F4220020C4040000541D0200A023E2217D
:10ACA0001A4ADB05C90010B55A5008395A50042118
:10ACB000174B053AFF3A9950164A0239995000222B
:10ACC000CD200731FF315A5014315A501249C00477
:10ACD0005850A120C1218000890058500539FF3902
:10ACE0005A50A022FC39FF39D2009950C023C02409
:10ACF0000A4A03315B00D1507C30135824061B02F2
:10AD00001B0A23431350116010BDC0460C060000FF
:10AD1000003000400C0500002405000000E100E0C8
:10AD20008022044BD2009A58002A01D101321A60C5
:10AD30007047C0460070004080220021054B520041
:10AD40009950A122D2009A58D3009B1A024A13802C
:10AD50007047C04600700040C02500200A4B0B49D8
:10AD60000B4AC0209950A0210122C9005A50FD3938
:10AD7000FF395A50074A000653581B021B0A034367
:10AD8000535080231360704700700040041000008F
:10AD90000405000000E100E070B5A024094E0A4D52
:10ADA0002B00022221007720FFF7A8FE2B786A787B
:10ADB0001B0202341343E4B233800236B02CEFD1CD
:10ADC00070BDC046F8220020082300200123024A5B
:10ADD00011784B4013707047D6260020F0B55F46BF
:10ADE00056464D464446F0B489B006AD06220021D1
:10ADF0002800FDF70DFA40236B70353BAB70023B2A
:10AE0000EB7009332B71013B6B71784B2900981D56
:10AE100006229A4605F0DBFEAB78032298464146AF
:10AE2000A0230020C131FF31DB058900CA50E97839
:10AE300084468946C131FF318900CA502979444688
:10AE40008B46C131FF318900C8506F79A12039008C
:10AE50004E46C131FF318900CA506549C0000C50CF
:10AE6000644C0E515E46A04604340E510126340057
:10AE7000BC401C506F78604C3F060F512F785F4DDF
:10AE800064464F518427543D7F00CC514E51E025FC
:10AE9000ED005A515A4D5A51802292011E501A50BB
:10AEA0005246584D2960D27A964042469E505022D2
:10AEB000554BCC51CA508422C8594D4B52000028E2
:10AEC000F9D0A321C9005958A0200191A121C005A2
:10AED000C900465001990127013101914549465069
:10AEE0000020494998505F5058508427995840484D
:10AEF0007F000029F9D00023C351A323DB00C358EE
:10AF000002938421C3593A4A4900002BF9D0A32364
:10AF1000DB00D358A0200293A123C005DB00C6505C
:10AF2000029B01330293334BC6500023062053503B
:10AF3000354BD050842753582D487F00002BF9D033
:10AF4000A323DB00C358A0220393A123D205DB0077
:10AF5000D650039B01330393264BD6500023602227
:10AF6000C351294BC250224B984684235B0099461B
:10AF7000C359002BF7D0A3234246DB00D358A027A8
:10AF80000493A123FF05DB00FE50049B64200133E2
:10AF90000493FDF791F943462B6053460121DB7A78
:10AFA00042469940134B4846F9500023135006225D
:10AFB0004046154BC25043464A4698580028FCD09C
:10AFC000A3230B4ADB00D358A0220593A123012021
:10AFD000DB00D205D150059B0133059309B03CBC81
:10AFE00090469946A246AB46F0BDC0460C230020D1
:10AFF000004000400C05000024050000540500003E
:10B0000034070000182300201C05000030B5554C03
:10B0100083B0A37A002B00D197E06B46DD1D00239F
:10B020002B7023680122597C636818782B00FFF786
:10B03000C5FD002800D088E02368012259796368A3
:10B0400018782B00FFF7BAFD002800D07DE02368B8
:10B0500001221979636818782B00FFF7AFFD0028EB
:10B0600000D072E02423E35C002B36D00C232B703D
:10B07000236801221979636818782B00FFF79EFD79
:10B08000002862D13230FDF717F9C0232B70A37A64
:10B09000DB0762D4236801221979636818782B00D2
:10B0A000FFF78CFD002850D1637C002B58D12B700A
:10B0B00023680122597C636818782B00FFF77EFD16
:10B0C000002842D1236828705979636801221878D2
:10B0D0002B00FFF773FD404235E004232B702368FB
:10B0E00001221979636818782B00FFF767FD0028A3
:10B0F0002BD1A27C4023002A2AD02B702368012266
:10B100001979636818782B00FFF758FD00281CD1C7
:10B110003230FDF7D1F8637C5A1E93412B702368BF
:10B120000122597C636818782B00FFF747FD00283F
:10B130000BD1230022681033517962681078012204
:10B14000FFF73CFD404203B030BD01204042FAE72A
:10B15000A27AD207D1D52033CFE7E0232B7099E72D
:10B160000223A4E76820002070B5060082B02828DA
:10B1700000D9BBE02323694C01ADE35C00282CD14E
:10B18000002B18D02870A27C8023002A02D07E3B9E
:10B190002B7080332222A25C002A00D08AE0236830
:10B1A0000122D97D636818782B00FFF707FD00287E
:10B1B00001D12323E05400232B7007336B702368E5
:10B1C0000222597D636818782B00FFF7F7FC0028EE
:10B1D00000D08BE0207502B070BD012B19D0302358
:10B1E0002B70A27C8033002A02D07E3B2B708033F0
:10B1F0002222A25C002A5BD123680122D97D6368E8
:10B2000018782B00FFF7DAFC002802D10122232353
:10B21000E25420232B70012E6BD0052E59D9142E09
:10B220004AD903236B70A37A002B6FD004236A469C
:10B23000D370E37A042B69D023680122997863687C
:10B2400018786B460333FFF7B9FC002860D16B46D2
:10B250000722DB78E3726B789B011343DBB26B70E0
:10B2600023680222597D636818782B00FFF7A6FC3B
:10B2700000283BD108230122A372207322751C33BE
:10B28000E35C002B12D12374637C002B0ED16B4640
:10B29000DA702368597C636818786B460333FFF7CC
:10B2A0008DFC002802D16B46DB786374002092E7A6
:10B2B0002B70A1E72B7072E702236B70A37A002B2F
:10B2C00005D005236A46D370E37A052BB4D18723D2
:10B2D000C5E701236B70A37A002B05D006236A46CD
:10B2E000D370E37A062BA7D14723B8E70120404269
:10B2F00071E700236B70A37A002B05D006236A4602
:10B30000D370E37A062B97D10723A8E7C723A6E7D4
:10B310006B789A0107231343DBB2A0E76820002073
:10B3200010B5114A0100537A012B19D0002B13D00C
:10B33000022B0AD0032B0CD1102320240370D37CC2
:10B340000020002B00D00C7010BD082310240370C7
:10B35000F5E701204042F7E7022304240370EEE7FB
:10B36000042308240370EAE76820002070B51C4C11
:10B3700082B0A37A002B27D06B46DD1DBB2816D8E0
:10B38000612817D902232B70E27A00269A420BD04B
:10B39000236801229978636818782B00FFF70EFC68
:10B3A000002811D12B78E372300002B070BD012368
:10B3B0002B70E9E7292804D8132808D904232B7017
:10B3C000E2E703232B70DFE701267642ECE709284A
:10B3D00002D905232B70D7E706232B70D4E7C0468C
:10B3E0006820002070B5584C82B0A37A0600002B6C
:10B3F00000D196E02423E35C002B00D091E0227D75
:10B40000002A30D0421E272A00D885E02322A25CE1
:10B4100001AD002A18D02B70A37C8022002B02D013
:10B42000022302322B702223E35C002B00D071E058
:10B4300023680122D97D636818782B00FFF7BEFBD3
:10B44000002801D12323E05400232B7007336B70B5
:10B4500023680222597D636818782B00FFF7AEFB42
:10B46000002800D12075F920032E31D86B46D87002
:10B47000236801225978636818786B460333FFF715
:10B480009DFB00284DD16B46FA20D9788000013110
:10B4900002F0A4FDA37A80B2E0814008002B14D012
:10B4A00001ADBB2821D9012301222B70E37A9342FD
:10B4B0000BD0236801229978636818782B00FFF776
:10B4C0007DFB002801D12B78E372002002B070BD13
:10B4D000FA23311C9B009E420FD8FA2089B28000CB
:10B4E00002F07CFD0138C0B2C0E761280ED82928DF
:10B4F0001AD9032303222B70D8E7FA20191C89B22A
:10B50000800002F06BFD0138C0B2AFE702230222D7
:10B510002B70CBE72A708BE7C0B2FFF725FE002027
:10B52000D4E701204042D1E7132805D8092807D9DC
:10B53000052305222B70B9E7042304222B70B5E7FD
:10B54000062306222B70B1E768200020F0B547469D
:10B55000242380B4304D82B0EB5C0024002B2BD12F
:10B56000AC7A002C54D00133984304402F7C2C74C7
:10B57000041B621E944106006442002821D12A7DEA
:10B58000002A30D06A7C002A16D107326A44137030
:10B590002B689046597C6B68187813000122FFF7DE
:10B5A0000DFB002808D143461B786B74002E03D096
:10B5B000FFF72CFD002827D1200002B004BC9046E4
:10B5C000F0BD6A7C002AF3D107226A4413702B680D
:10B5D0009046597C6B68187813000122FFF7EEFA49
:10B5E0000028E0D0E4E76B46DA712B680122597C31
:10B5F0006B6818786B460733FFF7E0FA0028DBD159
:10B600006B46DB796B74D7E701242F746442D3E770
:10B6100001246442D0E7C04668200020F0B54F46C0
:10B6200046467023C0B4050083B0034069D06B4622
:10B630009E1D01233370484C01222368597D6368A5
:10B6400018783300FFF7BAFA002800D07EE04022D5
:10B6500033783070934323732A4266D03A2084466D
:10B660003738814601383823392201213B2780466B
:10B67000A80604D443463A00337049466346E806B8
:10B6800001D4130031702A0700D4337023680122DB
:10B69000997D636818783300FFF790FA002855D138
:10B6A00008232A009A4320D02323E35C002B1CD0DC
:10B6B0006B46D871A37C8022002B03D06A460223FC
:10B6C000D37182222223E35C002B01D06B46DA7116
:10B6D00023680122D97D636818786B460733FFF72A
:10B6E0006DFA002801D12323E05400233220A572F3
:10B6F0002375FCF7E1FD002003B00CBC9046994691
:10B70000F0BD00281ED16B464027134C9E1D2368B8
:10B710003770597D6368012218783300FFF74EFABD
:10B72000002813D13378BB4323733E20042384467F
:10B7300037388146013833703D22383305213F27A1
:10B74000804695E76A46961D337074E70023012012
:10B75000A3724042D0E7C04668200020802370B525
:10B76000774C84B002AD2B7023680122597D636849
:10B7700018782B00FFF722FA061E00D0C2E06420E2
:10B78000FCF79AFD23682E70597D636801221878B2
:10B790002B00FFF713FA002800D0B3E070232B70C2
:10B7A00023680122D97E636818782B00FFF706FA18
:10B7B000002800D0B5E023680622597E6368187817
:10B7C0002B00FFF79BF9002800D09BE004216B7948
:10B7D00001269B0019400223EA78520013406A7840
:10B7E0000B433240134300D182E0D9B2012B03D086
:10B7F000022900D098E00023E37400232B70236813
:10B800000122D97E636818782B00FFF7D7F9051E4F
:10B8100000D086E00122FF235242A372237263729A
:10B82000E372E2812274A3742332FE3BA354237398
:10B830002233E054607520752000163A163000213E
:10B84000FCF7E6FC2423E5540133E554A37AE584B0
:10B85000002B57D06B46DD1D18232B70237A032B4A
:10B860000FD0236801229979636818782B00FFF7BD
:10B87000A5F9002846D12B78DB082372A37A002B88
:10B8800040D000232B70637A002B0FD02368012255
:10B89000D979636818782B00FFF790F9002831D127
:10B8A0002B78DB086372A37A002B2BD005232B7037
:10B8B000E37A052B0BD02368012299786368187806
:10B8C0002B00FFF77BF900281CD12B78E372FA20BC
:10B8D0008000FFF787FD002814D10020FFF736FE17
:10B8E000041E0FD10020FFF799FE200004B070BDA8
:10B8F00023680122D978636818782B00FFF7FEF8D7
:10B90000002802D001246442EFE70F222B78134075
:10B9100010D0042B00D06EE70A4805F061F9E674F8
:10B920006BE703246442E0E70124074805F058F977
:10B930006442DAE70124054805F052F96442D4E78D
:10B94000682000203C1E0200C41D0200EC1D020005
:10B95000F0B54F4646462423C0B4284C83B0E35C80
:10B96000070089469046002B3BD0A37A002B38D0A5
:10B97000236801AE197B6368022218783300FFF751
:10B98000BDF800282DD1357873782D021D43BD42B6
:10B990002AD3606843885B089D420CD923680078ED
:10B9A000D97C01223300FFF7A9F8002819D1337898
:10B9B000DB061DD460682368FAB2597B00784B46D9
:10B9C000FFF79CF800280CD13900280002F07CFA1F
:10B9D000434601381870002003B00CBC90469946CD
:10B9E000F0BD01204042F7E7434618700138F3E705
:10B9F000FFF70CFB02204042EEE7C0466820002023
:10BA00002223024AD05400207047C04668200020FC
:10BA1000232370B5174C82B0E35C0500834224D029
:10BA200000281DD180228220022600216B46073388
:10BA30001970A17C002901D002001E702221615CD6
:10BA4000002900D01A702268D17D62681078012226
:10BA5000FFF7B4F800280AD12323E55402B070BDE3
:10BA6000B022B22032263021E0E70020F6E70120A4
:10BA70004042F3E76820002070B50D0082B0161E2A
:10BA800020D0124CA37A002B1CD0020A01AB1A70F2
:10BA9000C0B26268587040185189884212DC21682F
:10BAA0001078C97E0222FFF789F800280AD123689E
:10BAB000EAB2197E636818783300FFF77FF84042D6
:10BAC00002B070BD01204042FAE7C0466820002065
:10BAD000F0B556465F464D464446F0B48BB00393EE
:10BAE0002523514E01910292F35C8246002B75D1C1
:10BAF000002973D0002800D194E00400102800DD54
:10BB000075E0A3B29B46B37A002B67D0002305AF44
:10BB100070683B707B7043899C425FDC019B002511
:10BB2000984638E033681078D97E02223B00FFF750
:10BB300045F8002852D133684A46197E7368187850
:10BB400006ABFEF7DBFF002848D1220006A94046DD
:10BB500005F02EF800284CD15D44ADB2AA454BD972
:10BB600053465C1B102C00DD1024A3B29B46019BA6
:10BB70009846A8444346002B30D0B37A002B2DD0F2
:10BB80002B0A3B707068EBB222047B70120CD31846
:10BB90004289934222DC33680078D97E02223B003E
:10BBA000FFF70CF8002819D1E3B2994633684A46EA
:10BBB000197E736818784346FFF700F800280DD106
:10BBC000B37A002B0AD02B0A3B707268EBB27B7001
:10BBD0002404240C51891B198B42A3DD012040420F
:10BBE0000BB03CBC90469946A246AB46F0BD102433
:10BBF00087E702204042F3E7029A130A3B7033685A
:10BC00007A70597F7368022218783B00FEF7D6FFDE
:10BC10000028E3D125230122F2546B469B890020A2
:10BC2000F384DDE705AFE8E768200020242330B582
:10BC30005A4C83B0E35C834276D0002800D17AE08E
:10BC40002522A25C002A00D19EE0002B00D06EE0ED
:10BC5000A27A002A00D19AE06A46D51D2B7023688B
:10BC60000122597C636818782B00FEF7A7FF002893
:10BC700001D12B786374A37C002B36D0236801227A
:10BC80001979636818782B00FEF738FF00282CD14B
:10BC9000A37ADB0700D56FE020222B7893432B702B
:10BCA000236801221979636818782B00FEF786FF54
:10BCB00000281AD10330FCF7FFFA2223E35C30227C
:10BCC000002B01D0802380322B702323E35C002BD8
:10BCD00000D02A7023680122D97D636818782B0070
:10BCE000FEF76CFF002800D1A074E08CFFF77AFB10
:10BCF0006B46002206331A706268232110780122F5
:10BD0000FEF75CFF24230122E254223B2B702368C0
:10BD1000597C636818782B00FEF750FF002801D18A
:10BD20002B786374FFF772F9002003B030BD6B46C7
:10BD3000DD1D002392E7002B22D1A27A002A29D010
:10BD40006A46D51D2B7023680122597C63681878D8
:10BD50002B00FEF733FF002801D12B786374237C7E
:10BD600001222B706368232118782B00FEF726FF31
:10BD700000222423E254D5E720232A7813438EE7B8
:10BD80006B46DD1D2870DEE701204042CDE76B46A3
:10BD9000DD1D70E76B46DD1DE1E7C0466820002031
:10BDA000802210B5C823D20002490348FFF790FE55
:10BDB00010BDC046D41E0200F60B0000F0B5404C8A
:10BDC00087B002AF050003AE21000322380004F063
:10BDD000FEFE211D0322300004F0F9FE21000322A3
:10BDE000083104A804F0F3FE210003220C3105A859
:10BDF00004F0EDFE032108006A466C4628403B5CD7
:10BE00001370EA080A40BB5CB25C6370AB090B407C
:10BE1000F95CF35CA170315C01AC217062700321AC
:10BE20006A462848A370FFF727FE002845D1220064
:10BE300003212548FFF720FE00283ED1032204A954
:10BE4000684604F0C4FE032205A9200004F0BFFEEA
:10BE50006B0708D56A460123694612781A430A70AF
:10BE6000227813432370AB0608D56A46012369463E
:10BE700052781A434A70627813436370EB0512D408
:10BE800088206A460321C000FFF7F6FD002814D180
:10BE9000220003210D48FFF7EFFD00280DD10C4BC8
:10BEA0001D8107B0F0BD6A460123694692781A43A6
:10BEB0008A70A2781343A370E2E701204042F0E7C2
:10BEC000881E0200260400002A040000310400003D
:10BED0001C23002010B5144986B004000C22103138
:10BEE00003A804F074FEC82C1AD82100C82002F060
:10BEF00075F8013880B201AA030A507002210B487C
:10BF00001370FFF7B9FD00280AD103AA0C210848D5
:10BF1000FFF7B2FD002803D1064B9C8106B010BD8F
:10BF200001204042FAE7C046881E020016020000C7
:10BF3000C10A00001C230020F0B5050083B04307B0
:10BF40006BD0C823DB00994267D8080003F006F8DD
:10BF50004D4902F035FB6B46DC1C071C2000FFF747
:10BF6000DFF92378042B00D17DE033D9082B6AD088
:10BF7000102B52D18A21381CC90502F0EBFC02F0CB
:10BF800091F9424986B2381C02F0E4FC02F08AF9C9
:10BF900080B201AC330A2370030A6670A370E070AC
:10BFA000EB0729D4AB073CD400206B0737D5EE2034
:10BFB000220002214000FFF75FFD00282DD16B46D3
:10BFC0002D309A1D0221FF30FFF756FD431E984188
:10BFD000404224E0022B20D18D21381CC90502F0FB
:10BFE000B9FC02F05FF92A4986B2381C02F0B2FCB3
:10BFF00002F058F980B2CCE7EA202200022140008A
:10C00000FFF73AFD002808D16B4625309A1D022122
:10C01000FF30FFF731FD0028C4D00120404203B0BB
:10C02000F0BDEC20220002214000FFF725FD002892
:10C03000F3D16B4629309A1D0221FF30FFF71CFD1A
:10C040000028B1D0E9E78B21381CC90502F082FC39
:10C0500002F028F90F4986B2381C02F07BFC02F08E
:10C0600021F980B295E78C21381CC90502F072FCD9
:10C0700002F018F9084986B2381C02F06BFC02F095
:10C0800011F980B285E7C046000048430000C04473
:10C0900000004046000040450000C045F0B54E4657
:10C0A00045465746E0B486B0924B03AC06002200EA
:10C0B000042168200393FFF7DFFC4022A3233240D2
:10C0C0002370904600D10DE11D3363700833A370D7
:10C0D000063BE370C0277F00374000D1FDE0C4235A
:10C0E000237108336371063BA371A32322000A2145
:10C0F0008148E37123726372FFF7BEFC0323334070
:10C1000099464A462023002A00D1B8332200012153
:10C110007A4823706D46FFF7AFFC09227849B306D1
:10C1200000D4D8E01C31280004F051FD97202A00EB
:10C130000921C000FFF7A0FC002F09D0F30500D5AE
:10C14000D4E0704B0393220004216F48FFF794FC66
:10C15000F30700D4B6E08B20F82322000121000170
:10C160002370FFF789FCFA210720FFF7E5FEA420E2
:10C170003F232A00012140002B70FFF77DFC0023A4
:10C1800050209A462A000121FF302B70FFF774FCE3
:10C190005346EF202B7014232A00022140006B70BD
:10C1A000FFF76AFC5346ED202B7064232A0002211E
:10C1B00040006B70FFF760FC53462B708E23AE205F
:10C1C0006B706B33AB702A00693B04214000EB704D
:10C1D000FFF752FC5346AD202B7008232A000221A2
:10C1E00040006B70FFF748FC5346AC202B700223D5
:10C1F0002A00022140006B70FFF73EFCB307DB0F03
:10C20000D8332200012141482370FFF735FC730722
:10C2100052D53F4B00932A0004213E48FFF72CFCE7
:10C22000FEF7F4FEF30641D53B4B00932A000421B0
:10C230003A48FFF721FCFEF7E9FE0823384C334368
:10C240006381FEF7E3FE4346002B22D10A204346DA
:10C2500084460C3082461038A37314220423102124
:10C260001A258046002F04D043462A00A373514666
:10C2700063461420304201D01300A1734A46002ABD
:10C2800000D0A373002006B01CBC90469946A2467D
:10C29000F0BD1020062384460C3082461038A3736C
:10C2A0001A220433162120258046DBE70422A3212D
:10C2B0002800FBF7ADFFB9E704228B212800FBF72C
:10C2C000A7FFA8E78B20D8232200012100012370BB
:10C2D000FFF7D2FB92E7283125E7A323237163718F
:10C2E000A37102E76370A370E370F3E60D4B039351
:10C2F00029E7C04602CAE309A70A0000B60A0000FF
:10C30000881E0200B080B490A20A00003D07000021
:10C31000C0C2C4C6980A0000202830389E0A000017
:10C320001C230020B28BB69BF0B544465F465646B0
:10C330004D460023F0B491B01A9C060023807C4B3C
:10C340000F00987B914608A91B9AFFF701FB03B2E7
:10C3500098462380181E74D11422754B5B891A42AB
:10C3600000D075E00325AC46013DA846013DA94635
:10C3700000250C2100220420AA46079101390691CC
:10C38000013905910139049101390391013993462D
:10C390000291063201390191009201395D062DD5D5
:10C3A000524608ADAA5C120292462A004D46525DE2
:10C3B000554615433D80454608AA525D6546120222
:10C3C000904608AA525D4546154308AA515C105C88
:10C3D000009A00029346079A08430092049A0821A3
:10C3E0009446039A7D809046029AB8809146019ABD
:10C3F000208892460143218005980699C0277F0036
:10C400003B421BD0554608AA575D4D46525D4546F6
:10C410003F02174308AA3780575D6546525D3F02C9
:10C42000174308AA105C515C00020143B180009AD6
:10C430007021934677802088014321809B0752D149
:10C44000002011B03CBC90469946A246AB46F0BDD8
:10C45000089A11BA4A461160099A091410BA4A4654
:10C4600050600A9A8C4612BA92464A4655469560E2
:10C470004D460B9A514612BAEA6065466D43AC468A
:10C4800000140914404312144943524360444018B5
:10C490008018F12212069446802260449204904251
:10C4A0003FD88021228849000A43228010229346E7
:10C4B0000632009206320792013A0692013A05923C
:10C4C000013A0492013A0392013A0292013A01922E
:10C4D000033A9446013A9046013A9146013AEB39C3
:10C4E000142092465AE708AB9C465C466444637845
:10C4F000E678DA070BD50E4A1268002A07D0072023
:10C500000100F308314018400131904763781B0760
:10C5100096D5074B5B68002B92D0B0099847002056
:10C520008FE7FEF773FD434601202380404288E7F2
:10C530001C2300200023F0B5C356002B36DD30222B
:10C54000002320240821282610259446382703227A
:10C550008256002A18DD062141560022002902DDFC
:10C56000134398B2F0BD00293AD107214156403219
:10C570000029F5DC51D10821415640320029EFDC79
:10C5800059D1E0225200EBE7002A27D1042282563B
:10C590000B00002ADFDC3ED1052282562B00002A48
:10C5A000D9DC3B00002AD6D06346D4E7002B0CD15F
:10C5B0000123C356002B16DD31220123212409213A
:10C5C0002926112594463927C1E73422042324243F
:10C5D0000C212C26142594463C27B8E72300BAE703
:10C5E00080225200BCE7002B0CD10223C356002B43
:10C5F00016DD3222022322240A212A2612259446FD
:10C600003A27A4E73522052325240D212D261525BB
:10C6100094463D279BE733009DE7A02252009FE709
:10C62000002B0BD13722072327240F212F26172574
:10C6300094463F278BE70132FF3291E736220623EB
:10C6400026240E212E26162594463E277FE7C04637
:10C65000F0B55F4656464D464446F0B4764B91B031
:10C6600004AA944601930E23634400930AA900236D
:10C670000CAA08A8FFF758FE41B2002900D0D7E065
:10C680000C9802F023FCC221890502F063F9041C16
:10C690000D9802F01BFCC221890502F05BF980466F
:10C6A0000E9802F013FCC221890502F053F981466D
:10C6B0000F9802F00BFCC221890502F04BF9211CF6
:10C6C000051C201C02F046F94146071C404602F0BA
:10C6D00041F949468246484602F03CF9291C02903D
:10C6E000281C02F037F95146061C381C02F046FAA5
:10C6F000029902F043FA311C039601F0EBFD04F0BD
:10C70000DFF904900591291C484602F023F94146BF
:10C710008346201C02F01EF9011C584601F0DAFD88
:10C7200004F0CEF902000B0002F056FC049A059BBF
:10C7300000F088FE0022414B03F09EFB04F08AF9D2
:10C740003F4B291C1880404602F004F949468346B5
:10C75000201C02F0FFF8011C584602F00FFA04F00A
:10C76000AFF9C02300221B0603F086FB00F008FE91
:10C7700080268B4636065E440022304B310003F0A3
:10C780007BFB04F067F92F4B51461880381C01F0F1
:10C79000A1FD029902F0F2F9039902F0EFF904F019
:10C7A0008FF906000F004046494602F0D3F8291CD5
:10C7B0008046201C02F0CEF8011C404601F08AFDA4
:10C7C00004F07EF902000B0002F006FC32003B0090
:10C7D00000F038FE0022194B03F04EFB04F03AF94A
:10C7E0007022194B188004ABDB891A420BD004AAC3
:10C7F000118A164A118004AA518A154A118004AA86
:10C80000918A144A11801B070BD504AB1A8B124B6B
:10C810001A8004AB5A8B114B1A8004AB9A8B104BC5
:10C820001A8011B03CBC90469946A246AB46F0BD7A
:10C830000C4804F0D5F9F4E774230020005FC440ED
:10C84000862400209824002072230020D426002073
:10C85000B825002002280020B22500206C230020EB
:10C8600078230020CC2A0200A223A022DB00D205DC
:10C87000D35801209B0604D4024B1878431E9841DC
:10C88000C0B270477423002070B5050082B000204C
:10C890000E00FEF763FF0100324804F0A1F9782092
:10C8A000FEF7BCFE0100304804F09AF97820FEF74C
:10C8B0004DFE01002D4804F093F90020FFF7A0F889
:10C8C0000120FFF7A5F8002D1FD16B46DC1D0122CA
:10C8D000DD711A2123006820FEF770F90100244859
:10C8E00004F07EF9FA203100400101F077FB0138B5
:10C8F00020701921230001226820FEF75FF9010052
:10C900001C4804F06DF902B070BDFFF749FA010050
:10C91000194804F065F91948FFF70CFEFFF74EFAC5
:10C920000100174804F05CF97220FF30FFF7B6FBF6
:10C930000100144804F054F96420FFF7CBFA010019
:10C94000114804F04DF90120FFF770F901000F487C
:10C9500004F046F90A20FEF709FD01000C4804F036
:10C960003FF9D0E7102B0200282B0200402B0200D9
:10C97000E82B0200002C0200582B0200942000201B
:10C98000702B0200882B0200A02B0200B82B0200A3
:10C99000D02B020010B50B0001000B4804F020F969
:10C9A0008021A123A022FA20C900DB00D205D150AA
:10C9B000C000FBF781FCBFF34F8F044A044BDA60E1
:10C9C000BFF34F8FFEE7C046182C02000400FA05A3
:10C9D00000ED00E080218023184A8902D150802296
:10C9E000D221174B520289005A5040395A50012225
:10C9F0002F205A600138C046C046C046C046C046D7
:10CA0000C046C046C046C046C046C046C046F1D13A
:10CA10009A6000230B4A2F2013600138C046C0469D
:10CA2000C046C046C046C046C046C046C046C046D6
:10CA3000C046C046F1D1044A1370704700E100E0DF
:10CA4000001001402C2300204C230020A021F0B531
:10CA5000002347462C4A490080B4535004315350B8
:10CA600004315350043153504C3953500431535016
:10CA7000264B1B68002B37D02549002652582549E4
:10CA8000254F0C68141B00222402240A904602E061
:10CA9000002D1AD02B001A68A24216D8A41AB61874
:10CAA0001A7CDD69002AF3D0424699691A745A69E2
:10CAB0003B68002B1BD0100098470028E8D00022CC
:10CAC0000021FFF767FF002DE4D1144B14491A78B9
:10CAD0000B789A420ED0134A9B009E5080218023EF
:10CAE000114A49035B00D15004BC9046F0BD0800D8
:10CAF0009047CDE70132D3B2022B01D00B70EAE7A9
:10CB000000230B70E7E7C0460010014030230020EF
:10CB1000040500002C2300203423002040230020A3
:10CB2000412300204423002000E100E0F0B55F46EF
:10CB300056464D464446F0B4C54BC64A1B68C649E6
:10CB40008BB0059309781378994200D157E10133EE
:10CB5000DBB2022B00D100231370C04A9B009B580C
:10CB6000BB4A9A46059B53441B021B0A13600123D0
:10CB70000193BB4B00241B689B46BA4B5A461B785B
:10CB8000914619000393B84B88461B6847460493A7
:10CB9000AF4B013F1B680793B44B1B7809930023ED
:10CBA0009C4606930893FBB266469846FF2B32D00C
:10CBB0004346D800049B9C461300604401784578A6
:10CBC00000961A00A9421FD046684A00B44652187F
:10CBD00086780131D200C9B262448E4200D1EDE0C4
:10CBE0001678022E00D1C7E0032EEAD1002BE8D040
:10CBF0001C74DB69002BFBD10133457800930023C3
:10CC000099461A00A942DFD14746013FFBB2009E78
:10CC10009846FF2BCCD1089BC8460292B446002B05
:10CC200000D0F0E0069B002B02D0894B079A1A60D7
:10CC30006346002B02D04246894B1A60019B002BB1
:10CC400000D02DE15B46029A00259B1A5A1E9341A3
:10CC5000DBB205937E4B00271B6802999C46804BF4
:10CC60001B689B46814B1B78069300230193804BE6
:10CC7000994601230093039B013BDBB20393FF2BF7
:10CC800000D1F9E0049ADB0092460E009A44002D90
:10CC900028D06A68A9682C00ED696346D31A1B0284
:10CCA0001B0A4B4552D86A4612785B1823606760AE
:10CCB000A7602274E761002E58D031683000994295
:10CCC00005D3B9E01168994200D3A3E01000C2690E
:10CCD0005B1A002AF6D1E26132002360C4611600BB
:10CCE000002DD6D153461A785B7831009342C2D0DA
:10CCF000514649685300884651469B180132D2B2CA
:10CD00000A708978DB004344914200D19DE0197894
:10CD100032000129E3D15C68227C90464146320012
:10CD20000029DCD19A686260D968A1601869E06066
:10CD30005B69A361069B002BAFD043460022636072
:10CD40006346D31A1B021B0A4B45ACD963469A1A99
:10CD50001202120A8A4264D28B1A6A46127823603F
:10CD60006760A7602274E761002EA6D1220001232C
:10CD7000A34601931600B3E75668002B30D09E42BD
:10CD80001ED0009A1F00944602E0964206D017007B
:10CD9000FA69002AF9D16246009212E765460095C9
:10CDA000BA420FD01568D269FA61002A16D013680A
:10CDB0009C466544156045784B4602E700210FE725
:10CDC0001A001F00DE69002E0CD0012500951568A1
:10CDD000D269B1463300FA61002AE8D14578F0E61D
:10CDE0000023EEE60125234B9D6000950695002566
:10CDF000002307950135994608950995D2E7002348
:10CE00009A460193B5E66A4624215218174B1278C8
:10CE10001A7007E7C91A1160E26123603200C46129
:10CE20005DE76B461B7827606760A7602374E76146
:10CE3000002E9BD000233168CB1A336022000123DF
:10CE4000E661A346019316004AE7524615705EE775
:10CE50002C230020402300204123002044230020D5
:10CE600030230020382300203C23002042230020D0
:10CE7000FEFF7F0000100140019B002B00D09DE0D1
:10CE8000029B994236D1059B002B33D10023534A94
:10CE900013700BB03CBC90469946A246AB46F0BD21
:10CEA0004F4B002418680025029B0021002657469E
:10CEB00015E01A68BA4200D984E0D868BF1A891808
:10CEC0001E60DC69002807D0DD611D00059A9860AE
:10CED00052181202120A5A6023002000019C002BF3
:10CEE000E7D1002C01D03E4B1860002302930133A0
:10CEF0000593AFE6002900D15DE00B6839489846FC
:10CF0000394B3A4DC4583A4B2E781B68E11A090246
:10CF1000090A0331002E2DD042468A4200D20A006F
:10CF2000A820D21812022F49130AC0002E4D0B5010
:10CF30004A591B1B121B1202120A1B0203321B0A44
:10CF40009A42A3D94B590B502F200138C046C046F6
:10CF5000C046C046C046C046C046C046C046C046A1
:10CF6000C046C046F1D180218023224A89025B005D
:10CF7000D1508BE78026D1277602BF00C651403FB3
:10CF8000C651C02280271B4EBF025200B7503760E7
:10CF9000012606602F200138C046C046C046C04664
:10CFA000C046C046C046C046C046C046C046C04651
:10CFB000F1D12E70B0E7FFF70DFD67E75A46084B39
:10CFC0001A605DE7BA46002C01D005490860514659
:10CFD000521A1A600293012305933BE64223002074
:10CFE0003023002000100140040500004C230020E5
:10CFF0002C23002000E100E0F8B54F464646C0B4BF
:10D000000326350080460F0014009946154007207E
:10D01000002D03D00CBC90469946F8BD002A44D0A0
:10D02000FFF7D8FC4A46224B80201A602200214B91
:10D0300018321E70204B62601C607B00DB19DB0025
:10D04000D218E260D318C022636125706570A770A2
:10D0500025726572A77225746574A774C524FF21B3
:10D06000164B40031D60164B52001D70154BA4005B
:10D070001D70154B98501A598A433F390A431A516B
:10D08000A122186040461149D2008850C420800077
:10D090001C580F4A2240C024240222431A500D4B30
:10D0A0000020CA580C4B1A60B4E7034B1A60B1E772
:10D0B00034230020382300203C230020302300208C
:10D0C000402300204123002000E100E00010014047
:10D0D000FF00FFFF040500002C23002010B50B4BC0
:10D0E0001B68002B0BD0002A07D0002805D003684E
:10D0F00008201C7C002C04D010BD0720FCE7082071
:10D10000FAE759745A610020F6E7C0463C23002034
:10D11000F0B5344B1C68002C06D0002804D007233F
:10D12000042903D81800F0BD0823FBE74369002B4E
:10D13000FAD0437C012B44D000262B4B10255B6892
:10D14000DB05DB0D25D164196378A5785F1CFFB280
:10D15000BD423AD02578BD4235D05D00ED186368F8
:10D16000ED009C4665440423002DDBD0033B2B706F
:10D1700068601E4B1E48C358E960AB608021802365
:10D180006A611C4A5B0049032E616770D15000231D
:10D19000C8E7103B5DB2002D19DBAD08C035154F57
:10D1A000AD00ED5903273B40DB00DD40AB093B40C0
:10D1B000DBB20025012BC6D00835032BC3D00835C0
:10D1C000C1E70E00B9E70423ACE70027C2E70F254B
:10D1D000094FDBB2BC461D40083DAD08AD006544BB
:10D1E0006D68DFE73C23002000ED00E0040500004F
:10D1F0000010014000E100E018ED00E051DF704751
:10D2000061DF7047F0B557464E464546E0B4344BB3
:10D21000344E1D6899466B425D41334BEDB21C683C
:10D22000984663425C4182B0E4B2304FB246002D72
:10D2300013D0002C40D13C68338801A920000B801A
:10D24000FFF7DEFF052837D000282AD00022002172
:10D25000FFF7A0FB0024002DEBD101A8FFF7CEFFC4
:10D2600005280DD0002822D000220021FFF792FBD4
:10D27000002C27D0012401A8FFF7C0FF0528F1D119
:10D28000002C19D153466A461B8801A99380174B7D
:10D290001C682000FFF7B4FF05280DD001250028E9
:10D2A000D4D1434620001B6898470024D3E74B465F
:10D2B00001981B689847DBE702B01CBC9046994672
:10D2C000A246F0BD6A46074B01A91B889380074B15
:10D2D0001C682000FFF794FF0528B5D10124CAE798
:10D2E000542300204E2300205823002050230020E8
:10D2F00010B50A4B1B68002B08D09847002800D1B6
:10D3000010BD00220021FFF745FBF9E7044B1B7815
:10D31000002BF5D0FFF776FFF2E7C0465C23002034
:10D320004D23002003210A4802680A43026009488D
:10D3300002680A4302600849084A094B9B1A03DD48
:10D34000043BC858D050FBDC0648804706480047DD
:10D350002405004054050040642E020000200020F7
:10D36000A82000202582010021810100FEE7FEE7C0
:10D37000FEE7FEE7FEE7FEE749004B0819007047AD
:10D38000F0B546464F46C0B48DB004000D0000F025
:10D390005DF8284B060098461B780F005BB20133FE
:10D3A00032D022002B002000290003F033FB8146FD
:10D3B000002829D120002900FFF7DEFF00221E4BA4
:10D3C00000F022FF00281FD0012302931B4B1C48B2
:10D3D00003934B46069407950A930494059500F031
:10D3E0006DFD43461B78089009915BB2022B12D069
:10D3F00002A800F061FD00280DD00A9B0193002BCC
:10D4000011D10898099901E0300039000DB00CBC29
:10D4100090469946F0BD03F0C5FB212303600A9BAB
:10D420000193002BEDD003F0BDFB0A9B0193036039
:10D43000E7E7C0469D2000200000F03F402C02009E
:10D44000C01D020010B500F0E7F910BDF0B5574659
:10D450004E464B005B089A46C0B4CD4B87B00600E1
:10D460000F0089469A4512DDCA4B5344034322D02C
:10D4700002000B0002F07AFF0B00020002F0D8F865
:10D480000300180007B00CBC91469A46F0BDC24B91
:10D490009A4524DCC14B9A4500DD0CE1C04AC14BE2
:10D4A00001F09AFD0022C04B00F0AEFE002816D01D
:10D4B00033003900E5E7BD4ABD4B02F0DDFCBD4A53
:10D4C00004000D00BC4B3000390002F0D5FC0B000D
:10D4D00002002900200001F07FFD0300D1E73000A9
:10D4E0003900FFF749FF02000B000020AE4902F0AF
:10D4F0003DFF0022B14B02F0BFFC04000D00B04A1A
:10D50000B04B02F0B9FCB04AB04B01F065FD22000F
:10D510002B0002F0B1FCAE4AAE4B02F027FF220016
:10D520002B0002F0A9FCAC4AAC4B01F055FD2200E7
:10D530002B0002F0A1FCAA4AAA4B02F017FF22001E
:10D540002B0002F099FCA84AA84B01F045FD2200EF
:10D550002B0002F091FCA64A02900391A54B2000FB
:10D56000290002F089FCA44AA44B02F0FFFE22002D
:10D570002B0002F081FCA24AA24B01F02DFD2200FB
:10D580002B0002F079FCA04AA04B02F0EFFE220033
:10D590002B0002F071FC844B002201F01DFD049071
:10D5A00005912000290000F0F3F9994B06000F00C7
:10D5B0009A4563DC0B0002980399002200920193C4
:10D5C000049A059B02F034F83200029003913B006C
:10D5D0003000390001F000FD02000B0002980399B1
:10D5E00002F04AFC029003910098019902000B009E
:10D5F00002F042FC02000B002000290002F0B6FEFF
:10D60000009A019B04000D003000390001F0E4FC99
:10D6100002000B002000290002F00AF802000B00B3
:10D6200001F0DAFC02000B006248634902F09EFE42
:10D6300002000B000298039902F098FE04000D000E
:10D640000098019902000B0001F0C6FC02000B00DB
:10D650005648704902F08AFE02000B0020002900A3
:10D6600002F084FE02000B0050486A4902F07EFE80
:10D670004B46002B00DC84E0030002E7049A059B84
:10D680000298039901F0D4FF32003B0002F0F4FB52
:10D6900032003B0001F0A0FC02000B0001F09CFCFA
:10D6A000444A454B02F062FE02000B003F484049ED
:10D6B00002F05CFEDCE702000B0002F0DDFB040080
:10D6C0000D003F4A3F4B02F0D7FB3F4A3F4B01F072
:10D6D00083FC22002B0002F0CFFB3D4A3D4B02F0C1
:10D6E00045FE22002B0002F0C7FB3B4A3B4B01F0FA
:10D6F00073FC22002B0002F0BFFB394A394B02F0C9
:10D7000035FE22002B0002F0B7FB374A374B01F001
:10D7100063FC22002B0002F0AFFB354A0090019120
:10D72000344B2000290002F0A7FB334A334B02F0B0
:10D730001DFE22002B0002F09FFB314A314B01F00D
:10D740004BFC22002B0002F097FB2F4A2F4B02F0DC
:10D750000DFE22002B0002F08FFB0022124B01F085
:10D760003BFC02000B000098019901F061FF3200C0
:10D770003B0002F081FB3B00320001F02DFC030076
:10D780007FE68022120694460300614479E6C04693
:10D79000FFFFEF3F000010C0FFFFDF3FFFFF3F3EF6
:10D7A0009C7500883CE4377E0000F03F182D4454FF
:10D7B000FB21F93F075C143326A6913C0000E03FB3
:10D7C00009F7FD0DE13D023F88B20175E0EF493FE9
:10D7D0003B8F68B52882A43F5544880E55C1C93F88
:10D7E0007D6FEB0312D6D43F555555555555C53F62
:10D7F00082922EB1C5B8B33F59018D1B6C06E63F2E
:10D80000C88A599CE52A00404B2D8A1C273A0340C0
:10D810003233EF3FFB21E93FF8B515004F4646464E
:10D820005A001C006B42C0B42B434B4F5208DB0F15
:10D8300088461343BB423AD84B005B0899464E4694
:10D8400043420343DB0F3343BB4230D8434BE3181F
:10D850002B4343D00226A3171E40CB0F1E434B463B
:10D8600003432ED013002B4332D0BA4241D0B945E6
:10D870002ED04B469A1A12153C2A32DC002C55DB6E
:10D880002A00230001F0D4FEFFF776FD00F076F9C0
:10D89000012E46D0022E39D0002E0ED0304A314B08
:10D8A00002F064FD304A314B02F060FD05E00200F9
:10D8B0000B002800210001F08FFB0CBC904699461C
:10D8C000F8BD022E10D0032EF7D127482849F4E7DF
:10D8D00043462548002B0ADB2649EEE700F04EF9C7
:10D8E000EBE721482349D3E71F482049E5E72249D0
:10D8F000E3E791451FD0022EF6D0032EE5D000209D
:10D900000021012ED9D180210906D6E7144A154BF2
:10D9100002F02CFD02000B001348144902F026FD12
:10D92000CBE7802424060B191900C6E73C32A7DA9E
:10D9300000200021ACE7022E06D0032E09D00A48B1
:10D94000012E04D00D49B8E70D480E49B5E70E4940
:10D95000B3E70B480D49B0E70000F07F000010C0AE
:10D96000075C143326A6A13C182D4454FB21094022
:10D97000FB2109C0FB21F93FFB21F9BFFB21E93F56
:10D98000D221337F7CD90240FB21E9BF7CD902C080
:10D99000F0B556464D4644465F46754BF0B40A0016
:10D9A0000D00190083B0060004002940994200D1FF
:10D9B000BAE0002D00DC94E02D1500D1A3E06D4B02
:10D9C00012039C468023120B5B0365441A43EB074A
:10D9D00000D581E06B109846E30F9B189B188022BE
:10D9E00016210026002764009203B818984202DC32
:10D9F00087181B1AB618E00F5B0001391B1864006A
:10DA000052080029F1D10022019294468022120688
:10DA10002020914609E09F4241D0E10FC91801380A
:10DA2000CB186400520800281ED0614651189F424E
:10DA3000F1DA8D18AC46CD0FED07BA464D4539D019
:10DA4000DB1B8C42BF417F42DB1B641A019901380A
:10DA50008B46934459460191E10FC9185746CB189C
:10DA6000640052080028E0D123432BD1019B5B08BE
:10DA7000414972108C466244F10702D580210906A3
:10DA80000B43414609058D181E002F003000390058
:10DA900003B03CBC90469946A246AB46F0BDA142BD
:10DAA0000ED88D18AC46CD0FED074D4548D09A469F
:10DAB0000023CAE76546002DC2DB7D1CAA46BFE7EE
:10DAC0003B00AAE7019B01333ED0019A0123944613
:10DAD000134063445B08CBE7E30F52009A186400DD
